{
  "_format": "hh-sol-artifact-1",
  "contractName": "RealEstatePayment",
  "sourceName": "contracts/RealEstatePayment.sol",
  "abi": [
    {
      "inputs": [
        {
          "internalType": "uint256",
          "name": "_propertyPrice",
          "type": "uint256"
        }
      ],
      "stateMutability": "nonpayable",
      "type": "constructor"
    },
    {
      "anonymous": false,
      "inputs": [
        {
          "indexed": true,
          "internalType": "address",
          "name": "buyer",
          "type": "address"
        },
        {
          "indexed": false,
          "internalType": "uint256",
          "name": "amount",
          "type": "uint256"
        }
      ],
      "name": "PropertyPurchased",
      "type": "event"
    },
    {
      "inputs": [],
      "name": "builder",
      "outputs": [
        {
          "internalType": "address",
          "name": "",
          "type": "address"
        }
      ],
      "stateMutability": "view",
      "type": "function"
    },
    {
      "inputs": [],
      "name": "buyProperty",
      "outputs": [],
      "stateMutability": "payable",
      "type": "function"
    },
    {
      "inputs": [],
      "name": "isSold",
      "outputs": [
        {
          "internalType": "bool",
          "name": "",
          "type": "bool"
        }
      ],
      "stateMutability": "view",
      "type": "function"
    },
    {
      "inputs": [],
      "name": "propertyPrice",
      "outputs": [
        {
          "internalType": "uint256",
          "name": "",
          "type": "uint256"
        }
      ],
      "stateMutability": "view",
      "type": "function"
    }
  ],
  "bytecode": "0x608060405234801561001057600080fd5b506040516102b13803806102b183398101604081905261002f91610053565b600080546001600160a01b031916331790556001556002805460ff1916905561006c565b60006020828403121561006557600080fd5b5051919050565b6102368061007b6000396000f3fe60806040526004361061003f5760003560e01c80630ec3ce5914610044578063451a308f1461006d578063d7e84fbf14610077578063e852e741146100af575b600080fd5b34801561005057600080fd5b5061005a60015481565b6040519081526020015b60405180910390f35b6100756100d9565b005b34801561008357600080fd5b50600054610097906001600160a01b031681565b6040516001600160a01b039091168152602001610064565b3480156100bb57600080fd5b506002546100c99060ff1681565b6040519015158152602001610064565b60025460ff16156101295760405162461bcd60e51b8152602060048201526015602482015274141c9bdc195c9d1e48185b1c9958591e481cdbdb19605a1b60448201526064015b60405180910390fd5b600154341461017a5760405162461bcd60e51b815260206004820152601960248201527f53656e642065786163742070726f7065727479207072696365000000000000006044820152606401610120565b600080546040516001600160a01b03909116913480156108fc02929091818181858888f193505050501580156101b4573d6000803e3d6000fd5b506002805460ff1916600117905560405133907f3c0cade9d270c0005f089d49842bd35076264614be1ca87be18f996825d9e07c906101f69034815260200190565b60405180910390a256fea264697066735822122049154a7b3bacddfdab24e8583353bb2ae9568049775527a5019a1c8d925fb4a864736f6c63430008140033",
  "linkReferences": {},
  "deployedLinkReferences": {}
}