{
  "_format": "hh-sol-artifact-1",
  "contractName": "RealEstateNFT",
  "sourceName": "contracts/RealEstateNFT.sol",
  "abi": [
    {
      "inputs": [],
      "stateMutability": "nonpayable",
      "type": "constructor"
    },
    {
      "inputs": [
        {
          "internalType": "address",
          "name": "sender",
          "type": "address"
        },
        {
          "internalType": "uint256",
          "name": "tokenId",
          "type": "uint256"
        },
        {
          "internalType": "address",
          "name": "owner",
          "type": "address"
        }
      ],
      "name": "ERC721IncorrectOwner",
      "type": "error"
    },
    {
      "inputs": [
        {
          "internalType": "address",
          "name": "operator",
          "type": "address"
        },
        {
          "internalType": "uint256",
          "name": "tokenId",
          "type": "uint256"
        }
      ],
      "name": "ERC721InsufficientApproval",
      "type": "error"
    },
    {
      "inputs": [
        {
          "internalType": "address",
          "name": "approver",
          "type": "address"
        }
      ],
      "name": "ERC721InvalidApprover",
      "type": "error"
    },
    {
      "inputs": [
        {
          "internalType": "address",
          "name": "operator",
          "type": "address"
        }
      ],
      "name": "ERC721InvalidOperator",
      "type": "error"
    },
    {
      "inputs": [
        {
          "internalType": "address",
          "name": "owner",
          "type": "address"
        }
      ],
      "name": "ERC721InvalidOwner",
      "type": "error"
    },
    {
      "inputs": [
        {
          "internalType": "address",
          "name": "receiver",
          "type": "address"
        }
      ],
      "name": "ERC721InvalidReceiver",
      "type": "error"
    },
    {
      "inputs": [
        {
          "internalType": "address",
          "name": "sender",
          "type": "address"
        }
      ],
      "name": "ERC721InvalidSender",
      "type": "error"
    },
    {
      "inputs": [
        {
          "internalType": "uint256",
          "name": "tokenId",
          "type": "uint256"
        }
      ],
      "name": "ERC721NonexistentToken",
      "type": "error"
    },
    {
      "inputs": [
        {
          "internalType": "address",
          "name": "owner",
          "type": "address"
        }
      ],
      "name": "OwnableInvalidOwner",
      "type": "error"
    },
    {
      "inputs": [
        {
          "internalType": "address",
          "name": "account",
          "type": "address"
        }
      ],
      "name": "OwnableUnauthorizedAccount",
      "type": "error"
    },
    {
      "anonymous": false,
      "inputs": [
        {
          "indexed": true,
          "internalType": "address",
          "name": "owner",
          "type": "address"
        },
        {
          "indexed": true,
          "internalType": "address",
          "name": "approved",
          "type": "address"
        },
        {
          "indexed": true,
          "internalType": "uint256",
          "name": "tokenId",
          "type": "uint256"
        }
      ],
      "name": "Approval",
      "type": "event"
    },
    {
      "anonymous": false,
      "inputs": [
        {
          "indexed": true,
          "internalType": "address",
          "name": "owner",
          "type": "address"
        },
        {
          "indexed": true,
          "internalType": "address",
          "name": "operator",
          "type": "address"
        },
        {
          "indexed": false,
          "internalType": "bool",
          "name": "approved",
          "type": "bool"
        }
      ],
      "name": "ApprovalForAll",
      "type": "event"
    },
    {
      "anonymous": false,
      "inputs": [
        {
          "indexed": false,
          "internalType": "uint256",
          "name": "tokenId",
          "type": "uint256"
        },
        {
          "indexed": false,
          "internalType": "address",
          "name": "recipient",
          "type": "address"
        },
        {
          "indexed": false,
          "internalType": "string",
          "name": "buildingName",
          "type": "string"
        }
      ],
      "name": "BadgeIssued",
      "type": "event"
    },
    {
      "anonymous": false,
      "inputs": [
        {
          "indexed": false,
          "internalType": "uint256",
          "name": "tokenId",
          "type": "uint256"
        },
        {
          "indexed": false,
          "internalType": "string",
          "name": "buildingName",
          "type": "string"
        },
        {
          "indexed": false,
          "internalType": "bool",
          "name": "isVerified",
          "type": "bool"
        }
      ],
      "name": "BuildingVerified",
      "type": "event"
    },
    {
      "anonymous": false,
      "inputs": [
        {
          "indexed": true,
          "internalType": "address",
          "name": "previousOwner",
          "type": "address"
        },
        {
          "indexed": true,
          "internalType": "address",
          "name": "newOwner",
          "type": "address"
        }
      ],
      "name": "OwnershipTransferred",
      "type": "event"
    },
    {
      "anonymous": false,
      "inputs": [
        {
          "indexed": true,
          "internalType": "address",
          "name": "from",
          "type": "address"
        },
        {
          "indexed": true,
          "internalType": "address",
          "name": "to",
          "type": "address"
        },
        {
          "indexed": true,
          "internalType": "uint256",
          "name": "tokenId",
          "type": "uint256"
        }
      ],
      "name": "Transfer",
      "type": "event"
    },
    {
      "inputs": [
        {
          "internalType": "address",
          "name": "to",
          "type": "address"
        },
        {
          "internalType": "uint256",
          "name": "tokenId",
          "type": "uint256"
        }
      ],
      "name": "approve",
      "outputs": [],
      "stateMutability": "nonpayable",
      "type": "function"
    },
    {
      "inputs": [
        {
          "internalType": "address",
          "name": "owner",
          "type": "address"
        }
      ],
      "name": "balanceOf",
      "outputs": [
        {
          "internalType": "uint256",
          "name": "",
          "type": "uint256"
        }
      ],
      "stateMutability": "view",
      "type": "function"
    },
    {
      "inputs": [
        {
          "internalType": "uint256",
          "name": "",
          "type": "uint256"
        }
      ],
      "name": "buildingBadges",
      "outputs": [
        {
          "internalType": "string",
          "name": "buildingName",
          "type": "string"
        },
        {
          "internalType": "string",
          "name": "location",
          "type": "string"
        },
        {
          "internalType": "bool",
          "name": "isVerified",
          "type": "bool"
        },
        {
          "internalType": "uint256",
          "name": "verificationDate",
          "type": "uint256"
        },
        {
          "internalType": "string",
          "name": "badgeURI",
          "type": "string"
        }
      ],
      "stateMutability": "view",
      "type": "function"
    },
    {
      "inputs": [
        {
          "internalType": "uint256",
          "name": "tokenId",
          "type": "uint256"
        }
      ],
      "name": "exists",
      "outputs": [
        {
          "internalType": "bool",
          "name": "",
          "type": "bool"
        }
      ],
      "stateMutability": "view",
      "type": "function"
    },
    {
      "inputs": [
        {
          "internalType": "uint256",
          "name": "tokenId",
          "type": "uint256"
        }
      ],
      "name": "getApproved",
      "outputs": [
        {
          "internalType": "address",
          "name": "",
          "type": "address"
        }
      ],
      "stateMutability": "view",
      "type": "function"
    },
    {
      "inputs": [
        {
          "internalType": "uint256",
          "name": "tokenId",
          "type": "uint256"
        }
      ],
      "name": "getBuildingBadge",
      "outputs": [
        {
          "internalType": "string",
          "name": "buildingName",
          "type": "string"
        },
        {
          "internalType": "string",
          "name": "location",
          "type": "string"
        },
        {
          "internalType": "bool",
          "name": "verificationStatus",
          "type": "bool"
        },
        {
          "internalType": "uint256",
          "name": "verificationDate",
          "type": "uint256"
        },
        {
          "internalType": "string",
          "name": "badgeURI",
          "type": "string"
        }
      ],
      "stateMutability": "view",
      "type": "function"
    },
    {
      "inputs": [
        {
          "internalType": "address",
          "name": "owner",
          "type": "address"
        },
        {
          "internalType": "address",
          "name": "operator",
          "type": "address"
        }
      ],
      "name": "isApprovedForAll",
      "outputs": [
        {
          "internalType": "bool",
          "name": "",
          "type": "bool"
        }
      ],
      "stateMutability": "view",
      "type": "function"
    },
    {
      "inputs": [
        {
          "internalType": "uint256",
          "name": "tokenId",
          "type": "uint256"
        }
      ],
      "name": "isVerified",
      "outputs": [
        {
          "internalType": "bool",
          "name": "",
          "type": "bool"
        }
      ],
      "stateMutability": "view",
      "type": "function"
    },
    {
      "inputs": [
        {
          "internalType": "address",
          "name": "recipient",
          "type": "address"
        },
        {
          "internalType": "string",
          "name": "buildingName",
          "type": "string"
        },
        {
          "internalType": "string",
          "name": "location",
          "type": "string"
        },
        {
          "internalType": "string",
          "name": "badgeURI",
          "type": "string"
        }
      ],
      "name": "issueBadge",
      "outputs": [
        {
          "internalType": "uint256",
          "name": "",
          "type": "uint256"
        }
      ],
      "stateMutability": "nonpayable",
      "type": "function"
    },
    {
      "inputs": [],
      "name": "name",
      "outputs": [
        {
          "internalType": "string",
          "name": "",
          "type": "string"
        }
      ],
      "stateMutability": "view",
      "type": "function"
    },
    {
      "inputs": [],
      "name": "owner",
      "outputs": [
        {
          "internalType": "address",
          "name": "",
          "type": "address"
        }
      ],
      "stateMutability": "view",
      "type": "function"
    },
    {
      "inputs": [
        {
          "internalType": "uint256",
          "name": "tokenId",
          "type": "uint256"
        }
      ],
      "name": "ownerOf",
      "outputs": [
        {
          "internalType": "address",
          "name": "",
          "type": "address"
        }
      ],
      "stateMutability": "view",
      "type": "function"
    },
    {
      "inputs": [],
      "name": "renounceOwnership",
      "outputs": [],
      "stateMutability": "nonpayable",
      "type": "function"
    },
    {
      "inputs": [
        {
          "internalType": "uint256",
          "name": "tokenId",
          "type": "uint256"
        }
      ],
      "name": "revokeVerification",
      "outputs": [],
      "stateMutability": "nonpayable",
      "type": "function"
    },
    {
      "inputs": [
        {
          "internalType": "address",
          "name": "from",
          "type": "address"
        },
        {
          "internalType": "address",
          "name": "to",
          "type": "address"
        },
        {
          "internalType": "uint256",
          "name": "tokenId",
          "type": "uint256"
        }
      ],
      "name": "safeTransferFrom",
      "outputs": [],
      "stateMutability": "nonpayable",
      "type": "function"
    },
    {
      "inputs": [
        {
          "internalType": "address",
          "name": "from",
          "type": "address"
        },
        {
          "internalType": "address",
          "name": "to",
          "type": "address"
        },
        {
          "internalType": "uint256",
          "name": "tokenId",
          "type": "uint256"
        },
        {
          "internalType": "bytes",
          "name": "data",
          "type": "bytes"
        }
      ],
      "name": "safeTransferFrom",
      "outputs": [],
      "stateMutability": "nonpayable",
      "type": "function"
    },
    {
      "inputs": [
        {
          "internalType": "address",
          "name": "operator",
          "type": "address"
        },
        {
          "internalType": "bool",
          "name": "approved",
          "type": "bool"
        }
      ],
      "name": "setApprovalForAll",
      "outputs": [],
      "stateMutability": "nonpayable",
      "type": "function"
    },
    {
      "inputs": [
        {
          "internalType": "bytes4",
          "name": "interfaceId",
          "type": "bytes4"
        }
      ],
      "name": "supportsInterface",
      "outputs": [
        {
          "internalType": "bool",
          "name": "",
          "type": "bool"
        }
      ],
      "stateMutability": "view",
      "type": "function"
    },
    {
      "inputs": [],
      "name": "symbol",
      "outputs": [
        {
          "internalType": "string",
          "name": "",
          "type": "string"
        }
      ],
      "stateMutability": "view",
      "type": "function"
    },
    {
      "inputs": [
        {
          "internalType": "uint256",
          "name": "tokenId",
          "type": "uint256"
        }
      ],
      "name": "tokenURI",
      "outputs": [
        {
          "internalType": "string",
          "name": "",
          "type": "string"
        }
      ],
      "stateMutability": "view",
      "type": "function"
    },
    {
      "inputs": [
        {
          "internalType": "address",
          "name": "from",
          "type": "address"
        },
        {
          "internalType": "address",
          "name": "to",
          "type": "address"
        },
        {
          "internalType": "uint256",
          "name": "tokenId",
          "type": "uint256"
        }
      ],
      "name": "transferFrom",
      "outputs": [],
      "stateMutability": "nonpayable",
      "type": "function"
    },
    {
      "inputs": [
        {
          "internalType": "address",
          "name": "newOwner",
          "type": "address"
        }
      ],
      "name": "transferOwnership",
      "outputs": [],
      "stateMutability": "nonpayable",
      "type": "function"
    },
    {
      "inputs": [
        {
          "internalType": "uint256",
          "name": "tokenId",
          "type": "uint256"
        }
      ],
      "name": "verifyBuilding",
      "outputs": [],
      "stateMutability": "nonpayable",
      "type": "function"
    }
  ],
  "bytecode": "0x60806040523480156200001157600080fd5b50336040518060400160405280601781526020017f4d65746148697665204275696c64696e672042616467650000000000000000008152506040518060400160405280600381526020016226a42160e91b8152508160009081620000769190620001c0565b506001620000858282620001c0565b5050506001600160a01b038116620000b757604051631e4fbdf760e01b81526000600482015260240160405180910390fd5b620000c281620000c9565b506200028c565b600680546001600160a01b038381166001600160a01b0319831681179093556040519116919082907f8be0079c531659141344cd1fd0a4f28419497f9722a3daafe3b4186f6b6457e090600090a35050565b634e487b7160e01b600052604160045260246000fd5b600181811c908216806200014657607f821691505b6020821081036200016757634e487b7160e01b600052602260045260246000fd5b50919050565b601f821115620001bb57600081815260208120601f850160051c81016020861015620001965750805b601f850160051c820191505b81811015620001b757828155600101620001a2565b5050505b505050565b81516001600160401b03811115620001dc57620001dc6200011b565b620001f481620001ed845462000131565b846200016d565b602080601f8311600181146200022c5760008415620002135750858301515b600019600386901b1c1916600185901b178555620001b7565b600085815260208120601f198616915b828110156200025d578886015182559484019460019091019084016200023c565b50858210156200027c5787850151600019600388901b60f8161c191681555b5050505050600190811b01905550565b611c60806200029c6000396000f3fe608060405234801561001057600080fd5b506004361061014d5760003560e01c806367868249116100c3578063b88d4fde1161007c578063b88d4fde146102e5578063c2901e84146102f8578063c87b56dd1461030b578063e985e9c51461031e578063f16d049014610331578063f2fde38b1461034457600080fd5b8063678682491461026c57806370a0823114610290578063715018a6146102b15780638da5cb5b146102b957806395d89b41146102ca578063a22cb465146102d257600080fd5b806323b872dd1161011557806323b872dd146101e257806337b6d96b146101f557806342842e0e146102085780634f558e791461021b578063586a6f9f146102465780636352211e1461025957600080fd5b806301ffc9a71461015257806306fdde031461017a578063081812fc1461018f578063095ea7b3146101ba5780631571f0c6146101cf575b600080fd5b610165610160366004611550565b610357565b60405190151581526020015b60405180910390f35b6101826103a9565b60405161017191906115bd565b6101a261019d3660046115d0565b61043b565b6040516001600160a01b039091168152602001610171565b6101cd6101c8366004611605565b610464565b005b6101cd6101dd3660046115d0565b610473565b6101cd6101f036600461162f565b6104fe565b6101656102033660046115d0565b610589565b6101cd61021636600461162f565b6105d6565b6101656102293660046115d0565b6000908152600260205260409020546001600160a01b0316151590565b6101cd6102543660046115d0565b6105f6565b6101a26102673660046115d0565b61067a565b61027f61027a3660046115d0565b610685565b60405161017195949392919061166b565b6102a361029e3660046116be565b6108df565b604051908152602001610171565b6101cd610927565b6006546001600160a01b03166101a2565b61018261093b565b6101cd6102e03660046116d9565b61094a565b6101cd6102f33660046117a1565b610955565b6102a361030636600461183d565b61096d565b6101826103193660046115d0565b610a9c565b61016561032c3660046118ca565b610b11565b61027f61033f3660046115d0565b610b3f565b6101cd6103523660046116be565b610d0d565b60006001600160e01b031982166380ac58cd60e01b148061038857506001600160e01b03198216635b5e139f60e01b145b806103a357506301ffc9a760e01b6001600160e01b03198316145b92915050565b6060600080546103b8906118fd565b80601f01602080910402602001604051908101604052809291908181526020018280546103e4906118fd565b80156104315780601f1061040657610100808354040283529160200191610431565b820191906000526020600020905b81548152906001019060200180831161041457829003601f168201915b5050505050905090565b600061044682610d4b565b506000828152600460205260409020546001600160a01b03166103a3565b61046f828233610d84565b5050565b61047b610d91565b6000818152600260205260409020546001600160a01b03166104b85760405162461bcd60e51b81526004016104af90611937565b60405180910390fd5b60008181526008602052604080822060028101805460ff191690559051600080516020611c0b833981519152926104f3928592909190611965565b60405180910390a150565b6001600160a01b03821661052857604051633250574960e11b8152600060048201526024016104af565b6000610535838333610dbe565b9050836001600160a01b0316816001600160a01b031614610583576040516364283d7b60e01b81526001600160a01b03808616600483015260248201849052821660448201526064016104af565b50505050565b6000818152600260205260408120546001600160a01b03166105bd5760405162461bcd60e51b81526004016104af90611937565b5060009081526008602052604090206002015460ff1690565b6105f183838360405180602001604052806000815250610955565b505050565b6105fe610d91565b6000818152600260205260409020546001600160a01b03166106325760405162461bcd60e51b81526004016104af90611937565b6000818152600860205260409081902060028101805460ff191660019081179091554260038301559151600080516020611c0b833981519152926104f3928592909190611965565b60006103a382610d4b565b60608060008060606106ae866000908152600260205260409020546001600160a01b0316151590565b6106ca5760405162461bcd60e51b81526004016104af90611937565b600086815260086020526040808220815160a081019092528054829082906106f1906118fd565b80601f016020809104026020016040519081016040528092919081815260200182805461071d906118fd565b801561076a5780601f1061073f5761010080835404028352916020019161076a565b820191906000526020600020905b81548152906001019060200180831161074d57829003601f168201915b50505050508152602001600182018054610783906118fd565b80601f01602080910402602001604051908101604052809291908181526020018280546107af906118fd565b80156107fc5780601f106107d1576101008083540402835291602001916107fc565b820191906000526020600020905b8154815290600101906020018083116107df57829003601f168201915b5050509183525050600282015460ff161515602082015260038201546040820152600482018054606090920191610832906118fd565b80601f016020809104026020016040519081016040528092919081815260200182805461085e906118fd565b80156108ab5780601f10610880576101008083540402835291602001916108ab565b820191906000526020600020905b81548152906001019060200180831161088e57829003601f168201915b5050509190925250508151602083015160408401516060850151608090950151929c919b5099509297509550909350505050565b60006001600160a01b03821661090b576040516322718ad960e21b8152600060048201526024016104af565b506001600160a01b031660009081526003602052604090205490565b61092f610d91565b6109396000610e56565b565b6060600180546103b8906118fd565b61046f338383610ea8565b6109608484846104fe565b6105833385858585610f47565b6000610977610d91565b6007805460009182610988836119ff565b9190505590506109988682611072565b6040805160a0810182528681526020808201879052600182840152426060830152608082018690526000848152600890915291909120815181906109dc9082611a6c565b50602082015160018201906109f19082611a6c565b50604082015160028201805460ff19169115159190911790556060820151600382015560808201516004820190610a289082611a6c565b509050507ff9cf250e6bdee04477a4a03a767fdb479180e4c12c19ef561485cb57e2117414818787604051610a5f93929190611b2c565b60405180910390a1600080516020611c0b83398151915281866001604051610a8993929190611b56565b60405180910390a190505b949350505050565b6060610aa782610d4b565b506000610abf60408051602081019091526000815290565b90506000815111610adf5760405180602001604052806000815250610b0a565b80610ae98461108c565b604051602001610afa929190611b81565b6040516020818303038152906040525b9392505050565b6001600160a01b03918216600090815260056020908152604080832093909416825291909152205460ff1690565b600860205260009081526040902080548190610b5a906118fd565b80601f0160208091040260200160405190810160405280929190818152602001828054610b86906118fd565b8015610bd35780601f10610ba857610100808354040283529160200191610bd3565b820191906000526020600020905b815481529060010190602001808311610bb657829003601f168201915b505050505090806001018054610be8906118fd565b80601f0160208091040260200160405190810160405280929190818152602001828054610c14906118fd565b8015610c615780601f10610c3657610100808354040283529160200191610c61565b820191906000526020600020905b815481529060010190602001808311610c4457829003601f168201915b5050505060028301546003840154600485018054949560ff9093169491935090610c8a906118fd565b80601f0160208091040260200160405190810160405280929190818152602001828054610cb6906118fd565b8015610d035780601f10610cd857610100808354040283529160200191610d03565b820191906000526020600020905b815481529060010190602001808311610ce657829003601f168201915b5050505050905085565b610d15610d91565b6001600160a01b038116610d3f57604051631e4fbdf760e01b8152600060048201526024016104af565b610d4881610e56565b50565b6000818152600260205260408120546001600160a01b0316806103a357604051637e27328960e01b8152600481018490526024016104af565b6105f1838383600161111f565b6006546001600160a01b031633146109395760405163118cdaa760e01b81523360048201526024016104af565b6000828152600260205260408120546001600160a01b031681610de2868686611225565b90506001600160a01b03821615801590610e0457506001600160a01b03861615155b15610e4d5760008581526008602052604080822060028101805460ff191690559051600080516020611c0b83398151915292610e44928992909190611965565b60405180910390a15b95945050505050565b600680546001600160a01b038381166001600160a01b0319831681179093556040519116919082907f8be0079c531659141344cd1fd0a4f28419497f9722a3daafe3b4186f6b6457e090600090a35050565b6001600160a01b038216610eda57604051630b61174360e31b81526001600160a01b03831660048201526024016104af565b6001600160a01b03838116600081815260056020908152604080832094871680845294825291829020805460ff191686151590811790915591519182527f17307eab39ab6107e8899845ad3d59bd9653f200f220920489ca2b5937696c31910160405180910390a3505050565b6001600160a01b0383163b1561106b57604051630a85bd0160e11b81526001600160a01b0384169063150b7a0290610f89908890889087908790600401611bb0565b6020604051808303816000875af1925050508015610fc4575060408051601f3d908101601f19168201909252610fc191810190611bed565b60015b61102d573d808015610ff2576040519150601f19603f3d011682016040523d82523d6000602084013e610ff7565b606091505b50805160000361102557604051633250574960e11b81526001600160a01b03851660048201526024016104af565b805181602001fd5b6001600160e01b03198116630a85bd0160e11b1461106957604051633250574960e11b81526001600160a01b03851660048201526024016104af565b505b5050505050565b61046f82826040518060200160405280600081525061131e565b6060600061109983611336565b600101905060008167ffffffffffffffff8111156110b9576110b9611715565b6040519080825280601f01601f1916602001820160405280156110e3576020820181803683370190505b5090508181016020015b600019016f181899199a1a9b1b9c1cb0b131b232b360811b600a86061a8153600a85049450846110ed57509392505050565b808061113357506001600160a01b03821615155b156111f557600061114384610d4b565b90506001600160a01b0383161580159061116f5750826001600160a01b0316816001600160a01b031614155b801561118257506111808184610b11565b155b156111ab5760405163a9fbf51f60e01b81526001600160a01b03841660048201526024016104af565b81156111f35783856001600160a01b0316826001600160a01b03167f8c5be1e5ebec7d5bd14f71427d1e84f3dd0314c0f7b2291e5b200ac8c7c3b92560405160405180910390a45b505b5050600090815260046020526040902080546001600160a01b0319166001600160a01b0392909216919091179055565b6000828152600260205260408120546001600160a01b03908116908316156112525761125281848661140e565b6001600160a01b038116156112905761126f60008560008061111f565b6001600160a01b038116600090815260036020526040902080546000190190555b6001600160a01b038516156112bf576001600160a01b0385166000908152600360205260409020805460010190555b60008481526002602052604080822080546001600160a01b0319166001600160a01b0389811691821790925591518793918516917fddf252ad1be2c89b69c2b068fc378daa952ba7f163c4a11628f55a4df523b3ef91a4949350505050565b6113288383611472565b6105f1336000858585610f47565b60008072184f03e93ff9f4daa797ed6e38ed64bf6a1f0160401b83106113755772184f03e93ff9f4daa797ed6e38ed64bf6a1f0160401b830492506040015b6d04ee2d6d415b85acef810000000083106113a1576d04ee2d6d415b85acef8100000000830492506020015b662386f26fc1000083106113bf57662386f26fc10000830492506010015b6305f5e10083106113d7576305f5e100830492506008015b61271083106113eb57612710830492506004015b606483106113fd576064830492506002015b600a83106103a35760010192915050565b6114198383836114d7565b6105f1576001600160a01b03831661144757604051637e27328960e01b8152600481018290526024016104af565b60405163177e802f60e01b81526001600160a01b0383166004820152602481018290526044016104af565b6001600160a01b03821661149c57604051633250574960e11b8152600060048201526024016104af565b60006114aa83836000610dbe565b90506001600160a01b038116156105f1576040516339e3563760e11b8152600060048201526024016104af565b60006001600160a01b03831615801590610a945750826001600160a01b0316846001600160a01b0316148061151157506115118484610b11565b80610a945750506000908152600460205260409020546001600160a01b03908116911614919050565b6001600160e01b031981168114610d4857600080fd5b60006020828403121561156257600080fd5b8135610b0a8161153a565b60005b83811015611588578181015183820152602001611570565b50506000910152565b600081518084526115a981602086016020860161156d565b601f01601f19169290920160200192915050565b602081526000610b0a6020830184611591565b6000602082840312156115e257600080fd5b5035919050565b80356001600160a01b038116811461160057600080fd5b919050565b6000806040838503121561161857600080fd5b611621836115e9565b946020939093013593505050565b60008060006060848603121561164457600080fd5b61164d846115e9565b925061165b602085016115e9565b9150604084013590509250925092565b60a08152600061167e60a0830188611591565b82810360208401526116908188611591565b9050851515604084015284606084015282810360808401526116b28185611591565b98975050505050505050565b6000602082840312156116d057600080fd5b610b0a826115e9565b600080604083850312156116ec57600080fd5b6116f5836115e9565b91506020830135801515811461170a57600080fd5b809150509250929050565b634e487b7160e01b600052604160045260246000fd5b600067ffffffffffffffff8084111561174657611746611715565b604051601f8501601f19908116603f0116810190828211818310171561176e5761176e611715565b8160405280935085815286868601111561178757600080fd5b858560208301376000602087830101525050509392505050565b600080600080608085870312156117b757600080fd5b6117c0856115e9565b93506117ce602086016115e9565b925060408501359150606085013567ffffffffffffffff8111156117f157600080fd5b8501601f8101871361180257600080fd5b6118118782356020840161172b565b91505092959194509250565b600082601f83011261182e57600080fd5b610b0a8383356020850161172b565b6000806000806080858703121561185357600080fd5b61185c856115e9565b9350602085013567ffffffffffffffff8082111561187957600080fd5b6118858883890161181d565b9450604087013591508082111561189b57600080fd5b6118a78883890161181d565b935060608701359150808211156118bd57600080fd5b506118118782880161181d565b600080604083850312156118dd57600080fd5b6118e6836115e9565b91506118f4602084016115e9565b90509250929050565b600181811c9082168061191157607f821691505b60208210810361193157634e487b7160e01b600052602260045260246000fd5b50919050565b60208082526014908201527310985919d948191bd95cc81b9bdd08195e1a5cdd60621b604082015260600190565b838152600060206060818401526000855461197f816118fd565b80606087015260806001808416600081146119a157600181146119bb576119e9565b60ff1985168984015283151560051b8901830195506119e9565b8a6000528660002060005b858110156119e15781548b82018601529083019088016119c6565b8a0184019650505b505050508515156040860152509150610a949050565b600060018201611a1f57634e487b7160e01b600052601160045260246000fd5b5060010190565b601f8211156105f157600081815260208120601f850160051c81016020861015611a4d5750805b601f850160051c820191505b8181101561106957828155600101611a59565b815167ffffffffffffffff811115611a8657611a86611715565b611a9a81611a9484546118fd565b84611a26565b602080601f831160018114611acf5760008415611ab75750858301515b600019600386901b1c1916600185901b178555611069565b600085815260208120601f198616915b82811015611afe57888601518255948401946001909101908401611adf565b5085821015611b1c5787850151600019600388901b60f8161c191681555b5050505050600190811b01905550565b8381526001600160a01b0383166020820152606060408201819052600090610e4d90830184611591565b838152606060208201526000611b6f6060830185611591565b90508215156040830152949350505050565b60008351611b9381846020880161156d565b835190830190611ba781836020880161156d565b01949350505050565b6001600160a01b0385811682528416602082015260408101839052608060608201819052600090611be390830184611591565b9695505050505050565b600060208284031215611bff57600080fd5b8151610b0a8161153a56fed958c342db5f9142a8ee2fde2816085bf65f977c797e397d444d622b6aa9f2b5a264697066735822122088d4670b5cf37063eeb0b8d6c8fa12862171c61111f7b7f823b35d53fc57a7c164736f6c63430008140033",
  "linkReferences": {},
  "deployedLinkReferences": {}
}