{
  "_format": "hh-sol-artifact-1",
  "contractName": "Sender",
  "sourceName": "contracts/sender.sol",
  "abi": [
    {
      "inputs": [
        {
          "internalType": "address payable",
          "name": "_receiver",
          "type": "address"
        }
      ],
      "stateMutability": "nonpayable",
      "type": "constructor"
    },
    {
      "inputs": [],
      "name": "getBalance",
      "outputs": [
        {
          "internalType": "uint256",
          "name": "",
          "type": "uint256"
        }
      ],
      "stateMutability": "view",
      "type": "function"
    },
    {
      "inputs": [],
      "name": "receiver",
      "outputs": [
        {
          "internalType": "address payable",
          "name": "",
          "type": "address"
        }
      ],
      "stateMutability": "view",
      "type": "function"
    },
    {
      "inputs": [],
      "name": "sendEther",
      "outputs": [],
      "stateMutability": "payable",
      "type": "function"
    }
  ],
  "bytecode": "0x608060405234801561001057600080fd5b506040516101ea3803806101ea83398101604081905261002f91610054565b600080546001600160a01b0319166001600160a01b0392909216919091179055610084565b60006020828403121561006657600080fd5b81516001600160a01b038116811461007d57600080fd5b9392505050565b610157806100936000396000f3fe6080604052600436106100345760003560e01c80630e29df221461003957806312065fe014610043578063f7260d3e14610063575b600080fd5b61004161009b565b005b34801561004f57600080fd5b506040514781526020015b60405180910390f35b34801561006f57600080fd5b50600054610083906001600160a01b031681565b6040516001600160a01b03909116815260200161005a565b600034116100e45760405162461bcd60e51b815260206004820152601260248201527109aeae6e840e6cadcc840e6dedaca408aa8960731b604482015260640160405180910390fd5b600080546040516001600160a01b03909116913480156108fc02929091818181858888f1935050505015801561011e573d6000803e3d6000fd5b5056fea26469706673582212209e9d25cbf087e2bb8652e6bd27c5a3c935fa75b7a4e950adcd44b6fce47b896564736f6c63430008140033",
  "linkReferences": {},
  "deployedLinkReferences": {}
}